{
  "contractName": "Faucet",
  "abi": [
    {
      "anonymous": false,
      "inputs": [
        {
          "indexed": true,
          "internalType": "address",
          "name": "to",
          "type": "address"
        },
        {
          "indexed": false,
          "internalType": "uint256",
          "name": "amount",
          "type": "uint256"
        }
      ],
      "name": "Deposit",
      "type": "event"
    },
    {
      "anonymous": false,
      "inputs": [
        {
          "indexed": true,
          "internalType": "address",
          "name": "to",
          "type": "address"
        },
        {
          "indexed": false,
          "internalType": "uint256",
          "name": "amount",
          "type": "uint256"
        }
      ],
      "name": "Withdrawal",
      "type": "event"
    },
    {
      "inputs": [],
      "name": "destroy",
      "outputs": [],
      "stateMutability": "nonpayable",
      "type": "function"
    },
    {
      "stateMutability": "payable",
      "type": "receive",
      "payable": true
    },
    {
      "inputs": [
        {
          "internalType": "uint256",
          "name": "withdraw_amount",
          "type": "uint256"
        }
      ],
      "name": "withdraw",
      "outputs": [],
      "stateMutability": "nonpayable",
      "type": "function"
    }
  ],
  "bytecode": "0x608060405234801561001057600080fd5b50336000806101000a81548173ffffffffffffffffffffffffffffffffffffffff021916908373ffffffffffffffffffffffffffffffffffffffff160217905550610391806100606000396000f3fe60806040526004361061002d5760003560e01c80632e1a7d4d1461008757806383197ef0146100b057610082565b36610082573373ffffffffffffffffffffffffffffffffffffffff167fe1fffcc4923d04b559f4d29a8bfc6cda04eb5b0d3c460751c2402c5c5cc9109c34604051610078919061030e565b60405180910390a2005b600080fd5b34801561009357600080fd5b506100ae60048036038101906100a99190610250565b6100c7565b005b3480156100bc57600080fd5b506100c5610174565b005b67016345785d8a00008111156100dc57600080fd5b3373ffffffffffffffffffffffffffffffffffffffff166108fc829081150290604051600060405180830381858888f19350505050158015610122573d6000803e3d6000fd5b503373ffffffffffffffffffffffffffffffffffffffff167f7fcf532c15f0a6db0bd6d0e038bea71d30d808c7d98cb3bf7268a95bf5081b6582604051610169919061030e565b60405180910390a250565b60008054906101000a900473ffffffffffffffffffffffffffffffffffffffff1673ffffffffffffffffffffffffffffffffffffffff163373ffffffffffffffffffffffffffffffffffffffff1614610202576040517f08c379a00000000000000000000000000000000000000000000000000000000081526004016101f9906102ee565b60405180910390fd5b60008054906101000a900473ffffffffffffffffffffffffffffffffffffffff1673ffffffffffffffffffffffffffffffffffffffff16ff5b60008135905061024a81610344565b92915050565b60006020828403121561026257600080fd5b60006102708482850161023b565b91505092915050565b6000610286602283610329565b91507f6f6e6c79206f776e65722063616e20696e766f6b652074686973206d6574686f60008301527f64210000000000000000000000000000000000000000000000000000000000006020830152604082019050919050565b6102e88161033a565b82525050565b6000602082019050818103600083015261030781610279565b9050919050565b600060208201905061032360008301846102df565b92915050565b600082825260208201905092915050565b6000819050919050565b61034d8161033a565b811461035857600080fd5b5056fea2646970667358221220ca27bfb99827a1169a5e2d8bbd586d1422602d3ce627848ebcc475bdd378bc8664736f6c63430008000033",
  "immutableReferences": {},
  "source": "// SPDX-License-Identifier: GPL-3.0\n\npragma solidity =0.8.0;\n\n\ncontract owned {\n    address owner;\n    \n    constructor() {\n        owner = msg.sender;\n    }\n    \n    modifier onlyOwner() {\n        require(msg.sender == owner, \"only owner can invoke this method!\");\n        _;\n    }\n}\n\n\ncontract nortal is owned {\n    \n    function destroy() external onlyOwner {\n        selfdestruct(payable(owner));\n    }\n\n}\n\n// my first contract\ncontract Faucet is nortal {\n\n    event Withdrawal(address indexed to, uint amount);\n    \n    event Deposit(address indexed to, uint amount);\n    \n    // Give out ether to anyone who asks\n    function withdraw(uint withdraw_amount) public {\n        // limit withdrawal amount\n        require(withdraw_amount <= 0.1 ether);\n        \n        payable(msg.sender).transfer(withdraw_amount);\n        \n        emit Withdrawal(msg.sender, withdraw_amount);\n    }\n    \n    // Accept any incoming amount 一个默认的函数\n    // fallback () external payable {}\n    \n    // 推荐使用receive()函数来接收以太币\n    receive() external payable {\n        emit Deposit(msg.sender, msg.value);\n    }\n\n}\n",
  "sourcePath": "/Users/apple/code/open-source/my-projects/etherum/Faucet/contracts/Faucet.sol",
  "compiler": {
    "name": "solc",
    "version": "0.8.0+commit.c7dfd78e.Emscripten.clang"
  },
  "schemaVersion": "3.3.4",
  "updatedAt": "2021-03-11T07:17:38.247Z",
  "networkType": "ethereum",
  "devdoc": {
    "kind": "dev",
    "methods": {},
    "version": 1
  },
  "userdoc": {
    "kind": "user",
    "methods": {},
    "version": 1
  }
}