{
  "contractName": "nortal",
  "abi": [
    {
      "inputs": [],
      "name": "destroy",
      "outputs": [],
      "stateMutability": "nonpayable",
      "type": "function"
    }
  ],
  "bytecode": "0x608060405234801561001057600080fd5b50336000806101000a81548173ffffffffffffffffffffffffffffffffffffffff021916908373ffffffffffffffffffffffffffffffffffffffff1602179055506101ce806100606000396000f3fe608060405234801561001057600080fd5b506004361061002b5760003560e01c806383197ef014610030575b600080fd5b61003861003a565b005b60008054906101000a900473ffffffffffffffffffffffffffffffffffffffff1673ffffffffffffffffffffffffffffffffffffffff163373ffffffffffffffffffffffffffffffffffffffff16146100c8576040517f08c379a00000000000000000000000000000000000000000000000000000000081526004016100bf90610167565b60405180910390fd5b60008054906101000a900473ffffffffffffffffffffffffffffffffffffffff1673ffffffffffffffffffffffffffffffffffffffff16ff5b600061010e602283610187565b91507f6f6e6c79206f776e65722063616e20696e766f6b652074686973206d6574686f60008301527f64210000000000000000000000000000000000000000000000000000000000006020830152604082019050919050565b6000602082019050818103600083015261018081610101565b9050919050565b60008282526020820190509291505056fea26469706673582212205d463da5986d52515c604a937d5b5bec68a585e77256990b6c0496a4cd02fb8464736f6c63430008000033",
  "immutableReferences": {},
  "source": "// SPDX-License-Identifier: GPL-3.0\n\npragma solidity =0.8.0;\n\n\ncontract owned {\n    address owner;\n\n    constructor() {\n        owner = msg.sender;\n    }\n\n    modifier onlyOwner() {\n        require(msg.sender == owner, \"only owner can invoke this method!\");\n        _;\n    }\n}\n\n\ncontract nortal is owned {\n\n    function destroy() external onlyOwner {\n        selfdestruct(payable(owner));\n    }\n}\n\n// my first contract\ncontract Faucet is nortal {\n\n    event Withdrawal(address indexed to, uint amount);\n\n    event Deposit(address indexed to, uint amount);\n\n    // Give out ether to anyone who asks\n    function withdraw(uint withdraw_amount) public {\n        // limit withdrawal amount\n        require(withdraw_amount <= 0.1 ether);\n\n        payable(msg.sender).transfer(withdraw_amount);\n\n        emit Withdrawal(msg.sender, withdraw_amount);\n    }\n\n    // Accept any incoming amount 一个默认的函数\n    // fallback () external payable {}\n\n    // 推荐使用receive()函数来接收以太币\n    receive() external payable {\n        emit Deposit(msg.sender, msg.value);\n    }\n\n}\n",
  "sourcePath": "/Users/apple/code/open-source/my-projects/etherum/Faucet/contracts/Faucet.sol",
  "compiler": {
    "name": "solc",
    "version": "0.8.0+commit.c7dfd78e.Emscripten.clang"
  },
  "schemaVersion": "3.3.4",
  "updatedAt": "2021-03-12T09:52:13.398Z",
  "devdoc": {
    "kind": "dev",
    "methods": {},
    "version": 1
  },
  "userdoc": {
    "kind": "user",
    "methods": {},
    "version": 1
  }
}