{
  "contractName": "Token1",
  "abi": [
    {
      "inputs": [],
      "name": "destroy",
      "outputs": [],
      "stateMutability": "nonpayable",
      "type": "function"
    }
  ],
  "bytecode": "0x608060405234801561001057600080fd5b50336000806101000a81548173ffffffffffffffffffffffffffffffffffffffff021916908373ffffffffffffffffffffffffffffffffffffffff1602179055506101ce806100606000396000f3fe608060405234801561001057600080fd5b506004361061002b5760003560e01c806383197ef014610030575b600080fd5b61003861003a565b005b60008054906101000a900473ffffffffffffffffffffffffffffffffffffffff1673ffffffffffffffffffffffffffffffffffffffff163373ffffffffffffffffffffffffffffffffffffffff16146100c8576040517f08c379a00000000000000000000000000000000000000000000000000000000081526004016100bf90610167565b60405180910390fd5b60008054906101000a900473ffffffffffffffffffffffffffffffffffffffff1673ffffffffffffffffffffffffffffffffffffffff16ff5b600061010e602283610187565b91507f6f6e6c79206f776e65722063616e20696e766f6b652074686973206d6574686f60008301527f64210000000000000000000000000000000000000000000000000000000000006020830152604082019050919050565b6000602082019050818103600083015261018081610101565b9050919050565b60008282526020820190509291505056fea2646970667358221220e93074283dba68de1b17d79e3dd696ec67efa1cdc7905c49036ca74876a419bb64736f6c63430008000033",
  "immutableReferences": {},
  "source": "// SPDX-License-Identifier: GPL-3.0\npragma solidity=0.8.0;\n\nimport './Faucet.sol';\n\ncontract Token1 is nortal {\n\n    Faucet _faucet;\n\n    // 在合约中创建一个其他的合约，并且给这个合约发送0.5eth；\n    // constructor() {\n    //     _faucet =(new Faucet).value(0.5 ether)();\n    // }\n\n    // function destroy () external override onlyOwner {\n    //     _faucet.destroy();\n    // }\n\n}",
  "sourcePath": "/Users/apple/code/open-source/my-projects/etherum/Faucet/contracts/Token1.sol",
  "compiler": {
    "name": "solc",
    "version": "0.8.0+commit.c7dfd78e.Emscripten.clang"
  },
  "schemaVersion": "3.3.4",
  "updatedAt": "2021-03-30T03:20:26.338Z",
  "devdoc": {
    "kind": "dev",
    "methods": {},
    "version": 1
  },
  "userdoc": {
    "kind": "user",
    "methods": {},
    "version": 1
  }
}