{
  "contractName": "Token0",
  "abi": [
    {
      "inputs": [],
      "stateMutability": "nonpayable",
      "type": "constructor"
    },
    {
      "inputs": [],
      "name": "destroy",
      "outputs": [],
      "stateMutability": "nonpayable",
      "type": "function"
    }
  ],
  "bytecode": "0x608060405234801561001057600080fd5b50336000806101000a81548173ffffffffffffffffffffffffffffffffffffffff021916908373ffffffffffffffffffffffffffffffffffffffff16021790555060405161005d906100bf565b604051809103906000f080158015610079573d6000803e3d6000fd5b50600160006101000a81548173ffffffffffffffffffffffffffffffffffffffff021916908373ffffffffffffffffffffffffffffffffffffffff1602179055506100cc565b6103f1806102a983390190565b6101ce806100db6000396000f3fe608060405234801561001057600080fd5b506004361061002b5760003560e01c806383197ef014610030575b600080fd5b61003861003a565b005b60008054906101000a900473ffffffffffffffffffffffffffffffffffffffff1673ffffffffffffffffffffffffffffffffffffffff163373ffffffffffffffffffffffffffffffffffffffff16146100c8576040517f08c379a00000000000000000000000000000000000000000000000000000000081526004016100bf90610167565b60405180910390fd5b60008054906101000a900473ffffffffffffffffffffffffffffffffffffffff1673ffffffffffffffffffffffffffffffffffffffff16ff5b600061010e602283610187565b91507f6f6e6c79206f776e65722063616e20696e766f6b652074686973206d6574686f60008301527f64210000000000000000000000000000000000000000000000000000000000006020830152604082019050919050565b6000602082019050818103600083015261018081610101565b9050919050565b60008282526020820190509291505056fea264697066735822122071db36e4799272fe8eacee97977784fa0e0298c002c4dbfe72860f5115e96c2364736f6c63430008000033608060405234801561001057600080fd5b50336000806101000a81548173ffffffffffffffffffffffffffffffffffffffff021916908373ffffffffffffffffffffffffffffffffffffffff160217905550610391806100606000396000f3fe60806040526004361061002d5760003560e01c80632e1a7d4d1461008757806383197ef0146100b057610082565b36610082573373ffffffffffffffffffffffffffffffffffffffff167fe1fffcc4923d04b559f4d29a8bfc6cda04eb5b0d3c460751c2402c5c5cc9109c34604051610078919061030e565b60405180910390a2005b600080fd5b34801561009357600080fd5b506100ae60048036038101906100a99190610250565b6100c7565b005b3480156100bc57600080fd5b506100c5610174565b005b67016345785d8a00008111156100dc57600080fd5b3373ffffffffffffffffffffffffffffffffffffffff166108fc829081150290604051600060405180830381858888f19350505050158015610122573d6000803e3d6000fd5b503373ffffffffffffffffffffffffffffffffffffffff167f7fcf532c15f0a6db0bd6d0e038bea71d30d808c7d98cb3bf7268a95bf5081b6582604051610169919061030e565b60405180910390a250565b60008054906101000a900473ffffffffffffffffffffffffffffffffffffffff1673ffffffffffffffffffffffffffffffffffffffff163373ffffffffffffffffffffffffffffffffffffffff1614610202576040517f08c379a00000000000000000000000000000000000000000000000000000000081526004016101f9906102ee565b60405180910390fd5b60008054906101000a900473ffffffffffffffffffffffffffffffffffffffff1673ffffffffffffffffffffffffffffffffffffffff16ff5b60008135905061024a81610344565b92915050565b60006020828403121561026257600080fd5b60006102708482850161023b565b91505092915050565b6000610286602283610329565b91507f6f6e6c79206f776e65722063616e20696e766f6b652074686973206d6574686f60008301527f64210000000000000000000000000000000000000000000000000000000000006020830152604082019050919050565b6102e88161033a565b82525050565b6000602082019050818103600083015261030781610279565b9050919050565b600060208201905061032360008301846102df565b92915050565b600082825260208201905092915050565b6000819050919050565b61034d8161033a565b811461035857600080fd5b5056fea264697066735822122054577b5faa4d8a40eb2ab0b593b16b4d40546c27b447917d67854854b0e3920564736f6c63430008000033",
  "immutableReferences": {},
  "source": "// SPDX-License-Identifier: GPL-3.0\npragma solidity =0.8.0;\n\nimport './Faucet.sol';\n\ncontract Token0 is nortal {\n\n    Faucet _faucet;\n\n    // 在合约中创建一个其他的合约，在当前例子中创建的Faucet合约的owner是Token合约，而Token合约的owner是创建Token合约的外部账户\n    constructor() {\n        _faucet = new Faucet();\n    }\n\n}",
  "sourcePath": "/Users/apple/code/open-source/my-projects/etherum/Faucet/contracts/Token0.sol",
  "compiler": {
    "name": "solc",
    "version": "0.8.0+commit.c7dfd78e.Emscripten.clang"
  },
  "schemaVersion": "3.3.4",
  "updatedAt": "2021-03-30T03:25:24.310Z",
  "devdoc": {
    "kind": "dev",
    "methods": {},
    "version": 1
  },
  "userdoc": {
    "kind": "user",
    "methods": {},
    "version": 1
  }
}