{
  "contractName": "Token",
  "abi": [
    {
      "inputs": [],
      "name": "destroy",
      "outputs": [],
      "stateMutability": "nonpayable",
      "type": "function"
    }
  ],
  "bytecode": "0x608060405234801561001057600080fd5b50336000806101000a81548173ffffffffffffffffffffffffffffffffffffffff021916908373ffffffffffffffffffffffffffffffffffffffff1602179055506101ce806100606000396000f3fe608060405234801561001057600080fd5b506004361061002b5760003560e01c806383197ef014610030575b600080fd5b61003861003a565b005b60008054906101000a900473ffffffffffffffffffffffffffffffffffffffff1673ffffffffffffffffffffffffffffffffffffffff163373ffffffffffffffffffffffffffffffffffffffff16146100c8576040517f08c379a00000000000000000000000000000000000000000000000000000000081526004016100bf90610167565b60405180910390fd5b60008054906101000a900473ffffffffffffffffffffffffffffffffffffffff1673ffffffffffffffffffffffffffffffffffffffff16ff5b600061010e602283610187565b91507f6f6e6c79206f776e65722063616e20696e766f6b652074686973206d6574686f60008301527f64210000000000000000000000000000000000000000000000000000000000006020830152604082019050919050565b6000602082019050818103600083015261018081610101565b9050919050565b60008282526020820190509291505056fea2646970667358221220a0361d78e2fdb6836c1aa9e1d864f2865f989b2a5b4f14c39636a2125192eccc64736f6c63430008000033",
  "immutableReferences": {},
  "source": "// SPDX-License-Identifier: GPL-3.0\npragma solidity =0.8.0;\n\nimport './Faucet.sol';\n\ncontract Token is nortal {\n\n    // constructor (address _faucet) {\n    //     _faucet.call(\"withdraw\", 0.1 ether);\n    // }\n\n    // constructor (address _faucet) {\n    //     // 如果调用有问题，call方法会返回false，因此可以添加一个判断\n    //     if(_faucet.call(\"withdraw\")) {\n    //         revert(\"Withdrawal from faucet failed\");\n    //     }\n    // }\n\n}",
  "sourcePath": "/Users/apple/code/open-source/my-projects/etherum/Faucet/contracts/Token3.sol",
  "compiler": {
    "name": "solc",
    "version": "0.8.0+commit.c7dfd78e.Emscripten.clang"
  },
  "schemaVersion": "3.3.4",
  "updatedAt": "2021-03-12T10:32:24.066Z",
  "devdoc": {
    "kind": "dev",
    "methods": {},
    "version": 1
  },
  "userdoc": {
    "kind": "user",
    "methods": {},
    "version": 1
  }
}